{
  "_format": "hh-sol-artifact-1",
  "contractName": "ServiceMarketplace",
  "sourceName": "contracts/ServiceMarketplace.sol",
  "abi": [
    {
      "inputs": [],
      "name": "ServiceMarketplace__OnlyOwnerCanCallThisFunction",
      "type": "error"
    },
    {
      "inputs": [],
      "name": "ServiceMarketplace__TotalSharesShouldBbeGreaterThanBuyableShares",
      "type": "error"
    },
    {
      "inputs": [],
      "name": "ServiceMarketplace__companyAlreadyExists",
      "type": "error"
    },
    {
      "inputs": [],
      "name": "ServiceMarketplace__companyDoesNotExist",
      "type": "error"
    },
    {
      "anonymous": false,
      "inputs": [
        {
          "indexed": true,
          "internalType": "string",
          "name": "name",
          "type": "string"
        },
        {
          "indexed": true,
          "internalType": "uint256",
          "name": "totalCompanyValue",
          "type": "uint256"
        },
        {
          "indexed": true,
          "internalType": "uint256",
          "name": "totalShares",
          "type": "uint256"
        },
        {
          "indexed": false,
          "internalType": "uint256",
          "name": "sharePrice",
          "type": "uint256"
        },
        {
          "indexed": false,
          "internalType": "uint256",
          "name": "buyableShares",
          "type": "uint256"
        },
        {
          "indexed": false,
          "internalType": "address",
          "name": "owner",
          "type": "address"
        }
      ],
      "name": "CompanyCreated",
      "type": "event"
    },
    {
      "anonymous": false,
      "inputs": [
        {
          "indexed": true,
          "internalType": "uint256",
          "name": "amountPaid",
          "type": "uint256"
        },
        {
          "components": [
            {
              "internalType": "string",
              "name": "name",
              "type": "string"
            },
            {
              "internalType": "uint256",
              "name": "totalCompanyValue",
              "type": "uint256"
            },
            {
              "internalType": "uint256",
              "name": "totalShares",
              "type": "uint256"
            },
            {
              "internalType": "uint256",
              "name": "sharePrice",
              "type": "uint256"
            },
            {
              "internalType": "uint256",
              "name": "buyableShares",
              "type": "uint256"
            },
            {
              "internalType": "uint256",
              "name": "companyFunds",
              "type": "uint256"
            },
            {
              "internalType": "uint256",
              "name": "availableShares",
              "type": "uint256"
            },
            {
              "internalType": "uint256",
              "name": "numberOfInvestors",
              "type": "uint256"
            },
            {
              "internalType": "address",
              "name": "owner",
              "type": "address"
            },
            {
              "internalType": "address[]",
              "name": "investors",
              "type": "address[]"
            }
          ],
          "indexed": true,
          "internalType": "struct ServiceMarketplace.Company",
          "name": "company",
          "type": "tuple"
        }
      ],
      "name": "ServicePaymentProcessed",
      "type": "event"
    },
    {
      "anonymous": false,
      "inputs": [
        {
          "indexed": true,
          "internalType": "address",
          "name": "investor",
          "type": "address"
        },
        {
          "indexed": true,
          "internalType": "uint256",
          "name": "percentage",
          "type": "uint256"
        },
        {
          "components": [
            {
              "internalType": "string",
              "name": "name",
              "type": "string"
            },
            {
              "internalType": "uint256",
              "name": "totalCompanyValue",
              "type": "uint256"
            },
            {
              "internalType": "uint256",
              "name": "totalShares",
              "type": "uint256"
            },
            {
              "internalType": "uint256",
              "name": "sharePrice",
              "type": "uint256"
            },
            {
              "internalType": "uint256",
              "name": "buyableShares",
              "type": "uint256"
            },
            {
              "internalType": "uint256",
              "name": "companyFunds",
              "type": "uint256"
            },
            {
              "internalType": "uint256",
              "name": "availableShares",
              "type": "uint256"
            },
            {
              "internalType": "uint256",
              "name": "numberOfInvestors",
              "type": "uint256"
            },
            {
              "internalType": "address",
              "name": "owner",
              "type": "address"
            },
            {
              "internalType": "address[]",
              "name": "investors",
              "type": "address[]"
            }
          ],
          "indexed": true,
          "internalType": "struct ServiceMarketplace.Company",
          "name": "company",
          "type": "tuple"
        }
      ],
      "name": "newInvestor",
      "type": "event"
    },
    {
      "anonymous": false,
      "inputs": [
        {
          "indexed": true,
          "internalType": "uint256",
          "name": "amount",
          "type": "uint256"
        },
        {
          "indexed": true,
          "internalType": "address",
          "name": "addressTo",
          "type": "address"
        },
        {
          "components": [
            {
              "internalType": "string",
              "name": "name",
              "type": "string"
            },
            {
              "internalType": "uint256",
              "name": "totalCompanyValue",
              "type": "uint256"
            },
            {
              "internalType": "uint256",
              "name": "totalShares",
              "type": "uint256"
            },
            {
              "internalType": "uint256",
              "name": "sharePrice",
              "type": "uint256"
            },
            {
              "internalType": "uint256",
              "name": "buyableShares",
              "type": "uint256"
            },
            {
              "internalType": "uint256",
              "name": "companyFunds",
              "type": "uint256"
            },
            {
              "internalType": "uint256",
              "name": "availableShares",
              "type": "uint256"
            },
            {
              "internalType": "uint256",
              "name": "numberOfInvestors",
              "type": "uint256"
            },
            {
              "internalType": "address",
              "name": "owner",
              "type": "address"
            },
            {
              "internalType": "address[]",
              "name": "investors",
              "type": "address[]"
            }
          ],
          "indexed": true,
          "internalType": "struct ServiceMarketplace.Company",
          "name": "company",
          "type": "tuple"
        }
      ],
      "name": "withdrawSuccess",
      "type": "event"
    },
    {
      "inputs": [
        {
          "internalType": "string",
          "name": "nameOfCompany",
          "type": "string"
        }
      ],
      "name": "checkBalanceOfCompany",
      "outputs": [
        {
          "internalType": "uint256",
          "name": "",
          "type": "uint256"
        }
      ],
      "stateMutability": "view",
      "type": "function"
    },
    {
      "inputs": [
        {
          "internalType": "uint256",
          "name": "",
          "type": "uint256"
        }
      ],
      "name": "companiesAddress",
      "outputs": [
        {
          "internalType": "address",
          "name": "",
          "type": "address"
        }
      ],
      "stateMutability": "view",
      "type": "function"
    },
    {
      "inputs": [
        {
          "internalType": "uint256",
          "name": "",
          "type": "uint256"
        }
      ],
      "name": "companiesList",
      "outputs": [
        {
          "internalType": "string",
          "name": "name",
          "type": "string"
        },
        {
          "internalType": "uint256",
          "name": "totalCompanyValue",
          "type": "uint256"
        },
        {
          "internalType": "uint256",
          "name": "totalShares",
          "type": "uint256"
        },
        {
          "internalType": "uint256",
          "name": "sharePrice",
          "type": "uint256"
        },
        {
          "internalType": "uint256",
          "name": "buyableShares",
          "type": "uint256"
        },
        {
          "internalType": "uint256",
          "name": "companyFunds",
          "type": "uint256"
        },
        {
          "internalType": "uint256",
          "name": "availableShares",
          "type": "uint256"
        },
        {
          "internalType": "uint256",
          "name": "numberOfInvestors",
          "type": "uint256"
        },
        {
          "internalType": "address",
          "name": "owner",
          "type": "address"
        }
      ],
      "stateMutability": "view",
      "type": "function"
    },
    {
      "inputs": [
        {
          "internalType": "string",
          "name": "",
          "type": "string"
        },
        {
          "internalType": "address",
          "name": "",
          "type": "address"
        }
      ],
      "name": "companyNameToInvestors",
      "outputs": [
        {
          "internalType": "uint256",
          "name": "investedAmount",
          "type": "uint256"
        },
        {
          "internalType": "uint256",
          "name": "sharePercentage",
          "type": "uint256"
        }
      ],
      "stateMutability": "view",
      "type": "function"
    },
    {
      "inputs": [
        {
          "internalType": "string",
          "name": "_name",
          "type": "string"
        },
        {
          "internalType": "uint256",
          "name": "_totalCompanyValue",
          "type": "uint256"
        },
        {
          "internalType": "uint256",
          "name": "_totalShares",
          "type": "uint256"
        },
        {
          "internalType": "uint256",
          "name": "_sharePrice",
          "type": "uint256"
        },
        {
          "internalType": "uint256",
          "name": "_buyableShares",
          "type": "uint256"
        }
      ],
      "name": "createCompany",
      "outputs": [],
      "stateMutability": "nonpayable",
      "type": "function"
    },
    {
      "inputs": [
        {
          "internalType": "string",
          "name": "companyName",
          "type": "string"
        }
      ],
      "name": "invest",
      "outputs": [],
      "stateMutability": "payable",
      "type": "function"
    },
    {
      "inputs": [
        {
          "internalType": "uint256",
          "name": "",
          "type": "uint256"
        }
      ],
      "name": "investorAddresses",
      "outputs": [
        {
          "internalType": "address",
          "name": "",
          "type": "address"
        }
      ],
      "stateMutability": "view",
      "type": "function"
    },
    {
      "inputs": [
        {
          "internalType": "string",
          "name": "",
          "type": "string"
        }
      ],
      "name": "nameExists",
      "outputs": [
        {
          "internalType": "bool",
          "name": "",
          "type": "bool"
        }
      ],
      "stateMutability": "view",
      "type": "function"
    },
    {
      "inputs": [
        {
          "internalType": "string",
          "name": "",
          "type": "string"
        }
      ],
      "name": "nameOfCompanyToOwner",
      "outputs": [
        {
          "internalType": "address",
          "name": "",
          "type": "address"
        }
      ],
      "stateMutability": "view",
      "type": "function"
    },
    {
      "inputs": [
        {
          "internalType": "string",
          "name": "",
          "type": "string"
        }
      ],
      "name": "nameToCompany",
      "outputs": [
        {
          "internalType": "string",
          "name": "name",
          "type": "string"
        },
        {
          "internalType": "uint256",
          "name": "totalCompanyValue",
          "type": "uint256"
        },
        {
          "internalType": "uint256",
          "name": "totalShares",
          "type": "uint256"
        },
        {
          "internalType": "uint256",
          "name": "sharePrice",
          "type": "uint256"
        },
        {
          "internalType": "uint256",
          "name": "buyableShares",
          "type": "uint256"
        },
        {
          "internalType": "uint256",
          "name": "companyFunds",
          "type": "uint256"
        },
        {
          "internalType": "uint256",
          "name": "availableShares",
          "type": "uint256"
        },
        {
          "internalType": "uint256",
          "name": "numberOfInvestors",
          "type": "uint256"
        },
        {
          "internalType": "address",
          "name": "owner",
          "type": "address"
        }
      ],
      "stateMutability": "view",
      "type": "function"
    },
    {
      "inputs": [],
      "name": "numberOfCompanies",
      "outputs": [
        {
          "internalType": "uint256",
          "name": "",
          "type": "uint256"
        }
      ],
      "stateMutability": "view",
      "type": "function"
    },
    {
      "inputs": [
        {
          "internalType": "string",
          "name": "companyName",
          "type": "string"
        }
      ],
      "name": "payForService",
      "outputs": [],
      "stateMutability": "payable",
      "type": "function"
    },
    {
      "inputs": [
        {
          "internalType": "uint256",
          "name": "_amount",
          "type": "uint256"
        },
        {
          "internalType": "address",
          "name": "_address",
          "type": "address"
        },
        {
          "internalType": "string",
          "name": "nameOfCompany",
          "type": "string"
        }
      ],
      "name": "withdraw",
      "outputs": [],
      "stateMutability": "nonpayable",
      "type": "function"
    }
  ],
  "bytecode": "0x608060405234801561001057600080fd5b50612c8f806100206000396000f3fe6080604052600436106100c25760003560e01c80639c1f5bd21161007f578063d8d9f4db11610059578063d8d9f4db146102bb578063eedf151c146102e6578063f108a7d214610323578063f92fc41a1461034c576100c2565b80639c1f5bd21461021d578063a9ce953a14610262578063cc637afe1461027e576100c2565b80630a8b7826146100c75780630c5b537a146100e35780631422873f146101285780635509101d146101655780636ae321b1146101a257806395a25efa146101e0575b600080fd5b6100e160048036038101906100dc9190611cd3565b610375565b005b3480156100ef57600080fd5b5061010a60048036038101906101059190611cd3565b6108f6565b60405161011f99989796959493929190611df5565b60405180910390f35b34801561013457600080fd5b5061014f600480360381019061014a9190611cd3565b610a02565b60405161015c9190611e89565b60405180910390f35b34801561017157600080fd5b5061018c60048036038101906101879190611ed0565b610a4b565b6040516101999190611e89565b60405180910390f35b3480156101ae57600080fd5b506101c960048036038101906101c49190611f29565b610a8a565b6040516101d7929190611f85565b60405180910390f35b3480156101ec57600080fd5b5061020760048036038101906102029190611ed0565b610ad1565b6040516102149190611e89565b60405180910390f35b34801561022957600080fd5b50610244600480360381019061023f9190611ed0565b610b10565b60405161025999989796959493929190611df5565b60405180910390f35b61027c60048036038101906102779190611cd3565b610c16565b005b34801561028a57600080fd5b506102a560048036038101906102a09190611cd3565b610ee9565b6040516102b29190611fc9565b60405180910390f35b3480156102c757600080fd5b506102d0610f1f565b6040516102dd9190611fe4565b60405180910390f35b3480156102f257600080fd5b5061030d60048036038101906103089190611cd3565b610f25565b60405161031a9190611fe4565b60405180910390f35b34801561032f57600080fd5b5061034a60048036038101906103459190611fff565b61113d565b005b34801561035857600080fd5b50610373600480360381019061036e919061206e565b611454565b005b806000816040516020016103899190612105565b60405160208183030381529060405290506000805b60048054905081101561047c5761045b83600483815481106103c3576103c2612127565b5b9060005260206000200180546103d890612185565b80601f016020809104026020016040519081016040528092919081815260200182805461040490612185565b80156104515780601f1061042657610100808354040283529160200191610451565b820191906000526020600020905b81548152906001019060200180831161043457829003601f168201915b505050505061199b565b15610469576001915061047c565b8080610474906121e5565b91505061039e565b50806104b4576040517f8fa47cff00000000000000000000000000000000000000000000000000000000815260040160405180910390fd5b600034116104f7576040517f08c379a00000000000000000000000000000000000000000000000000000000081526004016104ee9061229f565b60405180910390fd5b6000670de0b6b3a7640000606460068760405161051491906122fb565b90815260200160405180910390206004015460068860405161053691906122fb565b9081526020016040518091039020600301546105529190612312565b3461055d9190612383565b6105679190612312565b6105719190612383565b9050600081118015610584575060648111155b6105c3576040517f08c379a00000000000000000000000000000000000000000000000000000000081526004016105ba90612426565b60405180910390fd5b60006064826006886040516105d891906122fb565b9081526020016040518091039020600401546105f49190612312565b6105fe9190612383565b905060068660405161061091906122fb565b908152602001604051809103902060060154811115610664576040517f08c379a000000000000000000000000000000000000000000000000000000000815260040161065b90612492565b60405180910390fd5b8060068760405161067591906122fb565b9081526020016040518091039020600601600082825461069591906124b2565b92505081905550346006876040516106ad91906122fb565b908152602001604051809103902060050160008282546106cd91906124e6565b925050819055506006866040516106e491906122fb565b9081526020016040518091039020600901339080600181540180825580915050600190039060005260206000200160009091909190916101000a81548173ffffffffffffffffffffffffffffffffffffffff021916908373ffffffffffffffffffffffffffffffffffffffff1602179055503460058760405161076791906122fb565b908152602001604051809103902060003373ffffffffffffffffffffffffffffffffffffffff1673ffffffffffffffffffffffffffffffffffffffff16815260200190815260200160002060000160008282546107c491906124e6565b92505081905550816005876040516107dc91906122fb565b908152602001604051809103902060003373ffffffffffffffffffffffffffffffffffffffff1673ffffffffffffffffffffffffffffffffffffffff168152602001908152602001600020600101600082825461083991906124e6565b9250508190555060068660405161085091906122fb565b90815260200160405180910390206007016000815480929190610872906121e5565b919050555060068660405161088791906122fb565b90815260200160405180910390206040516108a2919061286a565b6040518091039020823373ffffffffffffffffffffffffffffffffffffffff167f103ac2865a432ae94e8183e48b1433f0d0c178e6ed2a7d48cdfac39d75ebd95260405160405180910390a4505050505050565b60068180516020810182018051848252602083016020850120818352809550505050505060009150905080600001805461092f90612185565b80601f016020809104026020016040519081016040528092919081815260200182805461095b90612185565b80156109a85780601f1061097d576101008083540402835291602001916109a8565b820191906000526020600020905b81548152906001019060200180831161098b57829003601f168201915b5050505050908060010154908060020154908060030154908060040154908060050154908060060154908060070154908060080160009054906101000a900473ffffffffffffffffffffffffffffffffffffffff16905089565b6007818051602081018201805184825260208301602085012081835280955050505050506000915054906101000a900473ffffffffffffffffffffffffffffffffffffffff1681565b60028181548110610a5b57600080fd5b906000526020600020016000915054906101000a900473ffffffffffffffffffffffffffffffffffffffff1681565b600582805160208101820180518482526020830160208501208183528095505050505050602052806000526040600020600091509150508060000154908060010154905082565b60038181548110610ae157600080fd5b906000526020600020016000915054906101000a900473ffffffffffffffffffffffffffffffffffffffff1681565b60018181548110610b2057600080fd5b90600052602060002090600a0201600091509050806000018054610b4390612185565b80601f0160208091040260200160405190810160405280929190818152602001828054610b6f90612185565b8015610bbc5780601f10610b9157610100808354040283529160200191610bbc565b820191906000526020600020905b815481529060010190602001808311610b9f57829003601f168201915b5050505050908060010154908060020154908060030154908060040154908060050154908060060154908060070154908060080160009054906101000a900473ffffffffffffffffffffffffffffffffffffffff16905089565b600080600090505b600683604051610c2e91906122fb565b908152602001604051809103902060070154811015610e9b576000600684604051610c5991906122fb565b90815260200160405180910390206009018281548110610c7c57610c7b612127565b5b9060005260206000200160009054906101000a900473ffffffffffffffffffffffffffffffffffffffff16905060006064600586604051610cbd91906122fb565b908152602001604051809103902060008473ffffffffffffffffffffffffffffffffffffffff1673ffffffffffffffffffffffffffffffffffffffff16815260200190815260200160002060010154670de0b6b3a764000034610d209190612383565b610d2a9190612312565b610d349190612383565b90506000600686604051610d4891906122fb565b90815260200160405180910390206004015482600588604051610d6b91906122fb565b908152602001604051809103902060008673ffffffffffffffffffffffffffffffffffffffff1673ffffffffffffffffffffffffffffffffffffffff16815260200190815260200160002060000154610dc49190612312565b610dce9190612383565b90508273ffffffffffffffffffffffffffffffffffffffff166108fc829081150290604051600060405180830381858888f19350505050158015610e16573d6000803e3d6000fd5b508085610e2391906124e6565b9450600686604051610e3591906122fb565b9081526020016040518091039020604051610e50919061286a565b6040518091039020347fe219c8b8a127d0a2114e75cff40a94db2f63a6ea9772b6a7b74b3d5b6c1a742660405160405180910390a35050508080610e93906121e5565b915050610c1e565b5060008134610eaa91906124b2565b905080600684604051610ebd91906122fb565b90815260200160405180910390206005016000828254610edd91906124e6565b92505081905550505050565b6008818051602081018201805184825260208301602085012081835280955050505050506000915054906101000a900460ff1681565b60005481565b600081600081604051602001610f3b9190612105565b60405160208183030381529060405290506000805b60048054905081101561102e5761100d8360048381548110610f7557610f74612127565b5b906000526020600020018054610f8a90612185565b80601f0160208091040260200160405190810160405280929190818152602001828054610fb690612185565b80156110035780601f10610fd857610100808354040283529160200191611003565b820191906000526020600020905b815481529060010190602001808311610fe657829003601f168201915b505050505061199b565b1561101b576001915061102e565b8080611026906121e5565b915050610f50565b5080611066576040517f8fa47cff00000000000000000000000000000000000000000000000000000000815260040160405180910390fd5b84600060078260405161107991906122fb565b908152602001604051809103902060009054906101000a900473ffffffffffffffffffffffffffffffffffffffff1690508073ffffffffffffffffffffffffffffffffffffffff163373ffffffffffffffffffffffffffffffffffffffff161461110f576040517f6fe25c5d00000000000000000000000000000000000000000000000000000000815260040160405180910390fd5b60068760405161111f91906122fb565b90815260200160405180910390206005015495505050505050919050565b806000816040516020016111519190612105565b60405160208183030381529060405290506000805b60048054905081101561124457611223836004838154811061118b5761118a612127565b5b9060005260206000200180546111a090612185565b80601f01602080910402602001604051908101604052809291908181526020018280546111cc90612185565b80156112195780601f106111ee57610100808354040283529160200191611219565b820191906000526020600020905b8154815290600101906020018083116111fc57829003601f168201915b505050505061199b565b156112315760019150611244565b808061123c906121e5565b915050611166565b508061127c576040517f8fa47cff00000000000000000000000000000000000000000000000000000000815260040160405180910390fd5b83600060078260405161128f91906122fb565b908152602001604051809103902060009054906101000a900473ffffffffffffffffffffffffffffffffffffffff1690508073ffffffffffffffffffffffffffffffffffffffff163373ffffffffffffffffffffffffffffffffffffffff1614611325576040517f6fe25c5d00000000000000000000000000000000000000000000000000000000815260040160405180910390fd5b600060068760405161133791906122fb565b908152602001604051809103902060050154905080891161139a578773ffffffffffffffffffffffffffffffffffffffff166108fc8a9081150290604051600060405180830381858888f19350505050158015611398573d6000803e3d6000fd5b505b886006886040516113ab91906122fb565b908152602001604051809103902060050160008282546113cb91906124b2565b925050819055506006876040516113e291906122fb565b90815260200160405180910390206040516113fd919061286a565b60405180910390208873ffffffffffffffffffffffffffffffffffffffff168a7f86294781999d3df5d5c8934a521ec0c126e868e2fb28312298038984d45c104060405160405180910390a4505050505050505050565b846000816040516020016114689190612105565b604051602081830303815290604052905060005b6004805490508110156115835761153982600483815481106114a1576114a0612127565b5b9060005260206000200180546114b690612185565b80601f01602080910402602001604051908101604052809291908181526020018280546114e290612185565b801561152f5780601f106115045761010080835404028352916020019161152f565b820191906000526020600020905b81548152906001019060200180831161151257829003601f168201915b505050505061199b565b15611570576040517ff3b8305600000000000000000000000000000000000000000000000000000000815260040160405180910390fd5b808061157b906121e5565b91505061147c565b508483106115bd576040517ff7ea390700000000000000000000000000000000000000000000000000000000815260040160405180910390fd5b6115c5611a69565b87816000018190525086816020018181525050848160600181815250508581604001818152505083816080018181525050838160c00181815250503381610100019073ffffffffffffffffffffffffffffffffffffffff16908173ffffffffffffffffffffffffffffffffffffffff168152505060008860405160200161164c9190612105565b60405160208183030381529060405290506004819080600181540180825580915050600190039060005260206000200160009091909190915090816116919190612a38565b5086888a6040516116a291906122fb565b60405180910390207f82e658b970e04c2566978e8dcb63aef2a2b7b0a84ea35fd8d3534402caf987428989336040516116dd93929190612b0a565b60405180910390a48160068a6040516116f691906122fb565b908152602001604051809103902060008201518160000190816117199190612b87565b506020820151816001015560408201518160020155606082015181600301556080820151816004015560a0820151816005015560c0820151816006015560e082015181600701556101008201518160080160006101000a81548173ffffffffffffffffffffffffffffffffffffffff021916908373ffffffffffffffffffffffffffffffffffffffff1602179055506101208201518160090190805190602001906117c5929190611ad2565b509050503360078a6040516117da91906122fb565b908152602001604051809103902060006101000a81548173ffffffffffffffffffffffffffffffffffffffff021916908373ffffffffffffffffffffffffffffffffffffffff1602179055506002339080600181540180825580915050600190039060005260206000200160009091909190916101000a81548173ffffffffffffffffffffffffffffffffffffffff021916908373ffffffffffffffffffffffffffffffffffffffff16021790555060018290806001815401808255809150506001900390600052602060002090600a020160009091909190915060008201518160000190816118ca9190612b87565b506020820151816001015560408201518160020155606082015181600301556080820151816004015560a0820151816005015560c0820151816006015560e082015181600701556101008201518160080160006101000a81548173ffffffffffffffffffffffffffffffffffffffff021916908373ffffffffffffffffffffffffffffffffffffffff160217905550610120820151816009019080519060200190611976929190611ad2565b50505060008081548092919061198b906121e5565b9190505550505050505050505050565b600081518351146119af5760009050611a63565b60005b8351811015611a5d578281815181106119ce576119cd612127565b5b602001015160f81c60f81b7effffffffffffffffffffffffffffffffffffffffffffffffffffffffffffff1916848281518110611a0e57611a0d612127565b5b602001015160f81c60f81b7effffffffffffffffffffffffffffffffffffffffffffffffffffffffffffff191614611a4a576000915050611a63565b8080611a55906121e5565b9150506119b2565b50600190505b92915050565b6040518061014001604052806060815260200160008152602001600081526020016000815260200160008152602001600081526020016000815260200160008152602001600073ffffffffffffffffffffffffffffffffffffffff168152602001606081525090565b828054828255906000526020600020908101928215611b4b579160200282015b82811115611b4a5782518260006101000a81548173ffffffffffffffffffffffffffffffffffffffff021916908373ffffffffffffffffffffffffffffffffffffffff16021790555091602001919060010190611af2565b5b509050611b589190611b5c565b5090565b5b80821115611b75576000816000905550600101611b5d565b5090565b6000604051905090565b600080fd5b600080fd5b600080fd5b600080fd5b6000601f19601f8301169050919050565b7f4e487b7100000000000000000000000000000000000000000000000000000000600052604160045260246000fd5b611be082611b97565b810181811067ffffffffffffffff82111715611bff57611bfe611ba8565b5b80604052505050565b6000611c12611b79565b9050611c1e8282611bd7565b919050565b600067ffffffffffffffff821115611c3e57611c3d611ba8565b5b611c4782611b97565b9050602081019050919050565b82818337600083830152505050565b6000611c76611c7184611c23565b611c08565b905082815260208101848484011115611c9257611c91611b92565b5b611c9d848285611c54565b509392505050565b600082601f830112611cba57611cb9611b8d565b5b8135611cca848260208601611c63565b91505092915050565b600060208284031215611ce957611ce8611b83565b5b600082013567ffffffffffffffff811115611d0757611d06611b88565b5b611d1384828501611ca5565b91505092915050565b600081519050919050565b600082825260208201905092915050565b60005b83811015611d56578082015181840152602081019050611d3b565b60008484015250505050565b6000611d6d82611d1c565b611d778185611d27565b9350611d87818560208601611d38565b611d9081611b97565b840191505092915050565b6000819050919050565b611dae81611d9b565b82525050565b600073ffffffffffffffffffffffffffffffffffffffff82169050919050565b6000611ddf82611db4565b9050919050565b611def81611dd4565b82525050565b6000610120820190508181036000830152611e10818c611d62565b9050611e1f602083018b611da5565b611e2c604083018a611da5565b611e396060830189611da5565b611e466080830188611da5565b611e5360a0830187611da5565b611e6060c0830186611da5565b611e6d60e0830185611da5565b611e7b610100830184611de6565b9a9950505050505050505050565b6000602082019050611e9e6000830184611de6565b92915050565b611ead81611d9b565b8114611eb857600080fd5b50565b600081359050611eca81611ea4565b92915050565b600060208284031215611ee657611ee5611b83565b5b6000611ef484828501611ebb565b91505092915050565b611f0681611dd4565b8114611f1157600080fd5b50565b600081359050611f2381611efd565b92915050565b60008060408385031215611f4057611f3f611b83565b5b600083013567ffffffffffffffff811115611f5e57611f5d611b88565b5b611f6a85828601611ca5565b9250506020611f7b85828601611f14565b9150509250929050565b6000604082019050611f9a6000830185611da5565b611fa76020830184611da5565b9392505050565b60008115159050919050565b611fc381611fae565b82525050565b6000602082019050611fde6000830184611fba565b92915050565b6000602082019050611ff96000830184611da5565b92915050565b60008060006060848603121561201857612017611b83565b5b600061202686828701611ebb565b935050602061203786828701611f14565b925050604084013567ffffffffffffffff81111561205857612057611b88565b5b61206486828701611ca5565b9150509250925092565b600080600080600060a0868803121561208a57612089611b83565b5b600086013567ffffffffffffffff8111156120a8576120a7611b88565b5b6120b488828901611ca5565b95505060206120c588828901611ebb565b94505060406120d688828901611ebb565b93505060606120e788828901611ebb565b92505060806120f888828901611ebb565b9150509295509295909350565b6000602082019050818103600083015261211f8184611d62565b905092915050565b7f4e487b7100000000000000000000000000000000000000000000000000000000600052603260045260246000fd5b7f4e487b7100000000000000000000000000000000000000000000000000000000600052602260045260246000fd5b6000600282049050600182168061219d57607f821691505b6020821081036121b0576121af612156565b5b50919050565b7f4e487b7100000000000000000000000000000000000000000000000000000000600052601160045260246000fd5b60006121f082611d9b565b91507fffffffffffffffffffffffffffffffffffffffffffffffffffffffffffffffff8203612222576122216121b6565b5b600182019050919050565b7f496e766573746d656e7420616d6f756e74206d7573742062652067726561746560008201527f72207468616e2030000000000000000000000000000000000000000000000000602082015250565b6000612289602883611d27565b91506122948261222d565b604082019050919050565b600060208201905081810360008301526122b88161227c565b9050919050565b600081905092915050565b60006122d582611d1c565b6122df81856122bf565b93506122ef818560208601611d38565b80840191505092915050565b600061230782846122ca565b915081905092915050565b600061231d82611d9b565b915061232883611d9b565b925082820261233681611d9b565b9150828204841483151761234d5761234c6121b6565b5b5092915050565b7f4e487b7100000000000000000000000000000000000000000000000000000000600052601260045260246000fd5b600061238e82611d9b565b915061239983611d9b565b9250826123a9576123a8612354565b5b828204905092915050565b7f50657263656e74616765206d757374206265206265747765656e203120616e6460008201527f2031303000000000000000000000000000000000000000000000000000000000602082015250565b6000612410602483611d27565b915061241b826123b4565b604082019050919050565b6000602082019050818103600083015261243f81612403565b9050919050565b7f4e6f7420656e6f7567682073686172657320617661696c61626c650000000000600082015250565b600061247c601b83611d27565b915061248782612446565b602082019050919050565b600060208201905081810360008301526124ab8161246f565b9050919050565b60006124bd82611d9b565b91506124c883611d9b565b92508282039050818111156124e0576124df6121b6565b5b92915050565b60006124f182611d9b565b91506124fc83611d9b565b9250828201905080821115612514576125136121b6565b5b92915050565b600081905092915050565b60008190508160005260206000209050919050565b6000815461254781612185565b612551818661251a565b9450600182166000811461256c5760018114612582576125b5565b60ff1983168652811515602002860193506125b5565b61258b85612525565b60005b838110156125ad5781548189015260018201915060208101905061258e565b808801955050505b50505092915050565b60006125ca838361253a565b905092915050565b60008160001c9050919050565b6000819050919050565b60006125fc6125f7836125d2565b6125df565b9050919050565b61260c81611d9b565b82525050565b600061261e8383612603565b60208301905092915050565b600073ffffffffffffffffffffffffffffffffffffffff82169050919050565b600061265d612658836125d2565b61262a565b9050919050565b61266d81611dd4565b82525050565b600061267f8383612664565b60208301905092915050565b600081549050919050565b600081905092915050565b60008190508160005260206000209050919050565b60006126c2825461264a565b9050919050565b6000600182019050919050565b60006126e18261268b565b6126eb8185612696565b93506126f6836126a1565b8060005b8381101561272e5761270b826126b6565b6127158882612673565b9750612720836126c9565b9250506001810190506126fa565b5085935050505092915050565b600061274783836126d6565b905092915050565b6000808301600080840161276386826125be565b95505060018401549050612776816125e9565b6127808682612612565b95505060028401549050612793816125e9565b61279d8682612612565b955050600384015490506127b0816125e9565b6127ba8682612612565b955050600484015490506127cd816125e9565b6127d78682612612565b955050600584015490506127ea816125e9565b6127f48682612612565b95505060068401549050612807816125e9565b6128118682612612565b95505060078401549050612824816125e9565b61282e8682612612565b955050600884015490506128418161264a565b61284b8682612673565b9550506009840161285c868261273b565b955050849250505092915050565b6000612876828461274f565b915081905092915050565b600081519050919050565b60008190508160005260206000209050919050565b60006020601f8301049050919050565b600082821b905092915050565b6000600883026128ee7fffffffffffffffffffffffffffffffffffffffffffffffffffffffffffffffff826128b1565b6128f886836128b1565b95508019841693508086168417925050509392505050565b6000819050919050565b600061293561293061292b84611d9b565b612910565b611d9b565b9050919050565b6000819050919050565b61294f8361291a565b61296361295b8261293c565b8484546128be565b825550505050565b600090565b61297861296b565b612983818484612946565b505050565b5b818110156129a75761299c600082612970565b600181019050612989565b5050565b601f8211156129ec576129bd8161288c565b6129c6846128a1565b810160208510156129d5578190505b6129e96129e1856128a1565b830182612988565b50505b505050565b600082821c905092915050565b6000612a0f600019846008026129f1565b1980831691505092915050565b6000612a2883836129fe565b9150826002028217905092915050565b612a4182612881565b67ffffffffffffffff811115612a5a57612a59611ba8565b5b612a648254612185565b612a6f8282856129ab565b600060209050601f831160018114612aa25760008415612a90578287015190505b612a9a8582612a1c565b865550612b02565b601f198416612ab08661288c565b60005b82811015612ad857848901518255600182019150602085019450602081019050612ab3565b86831015612af55784890151612af1601f8916826129fe565b8355505b6001600288020188555050505b505050505050565b6000606082019050612b1f6000830186611da5565b612b2c6020830185611da5565b612b396040830184611de6565b949350505050565b601f821115612b8257612b5381612525565b612b5c846128a1565b81016020851015612b6b578190505b612b7f612b77856128a1565b830182612988565b50505b505050565b612b9082611d1c565b67ffffffffffffffff811115612ba957612ba8611ba8565b5b612bb38254612185565b612bbe828285612b41565b600060209050601f831160018114612bf15760008415612bdf578287015190505b612be98582612a1c565b865550612c51565b601f198416612bff86612525565b60005b82811015612c2757848901518255600182019150602085019450602081019050612c02565b86831015612c445784890151612c40601f8916826129fe565b8355505b6001600288020188555050505b50505050505056fea26469706673582212201c3e3448a5260aea4897412f94bef8bd2d1a2aeb5b8076009663c4f8a83afca864736f6c63430008110033",
  "linkReferences": {},
  "deployedLinkReferences": {}
}