{
  "_format": "hh-sol-artifact-1",
  "contractName": "ServiceMarketplace",
  "sourceName": "contracts/ServiceMarketplace.sol",
  "abi": [
    {
      "inputs": [
        {
          "internalType": "address",
          "name": "_owner",
          "type": "address"
        }
      ],
      "stateMutability": "nonpayable",
      "type": "constructor"
    },
    {
      "inputs": [
        {
          "internalType": "address",
          "name": "owner",
          "type": "address"
        }
      ],
      "name": "OwnableInvalidOwner",
      "type": "error"
    },
    {
      "inputs": [
        {
          "internalType": "address",
          "name": "account",
          "type": "address"
        }
      ],
      "name": "OwnableUnauthorizedAccount",
      "type": "error"
    },
    {
      "inputs": [],
      "name": "ServiceMarketplace__AddressCannotCreateTwoCompanies",
      "type": "error"
    },
    {
      "inputs": [],
      "name": "ServiceMarketplace__CompanyDoesNotExist",
      "type": "error"
    },
    {
      "inputs": [],
      "name": "ServiceMarketplace__NullAddress",
      "type": "error"
    },
    {
      "inputs": [],
      "name": "ServiceMarketplace__OnlyOwnerCanCallThisFunction",
      "type": "error"
    },
    {
      "inputs": [],
      "name": "ServiceMarketplace__TotalSharesShouldBbeGreaterThanBuyableShares",
      "type": "error"
    },
    {
      "inputs": [],
      "name": "ServiceMarketplace__companyNameTaken",
      "type": "error"
    },
    {
      "anonymous": false,
      "inputs": [
        {
          "indexed": true,
          "internalType": "string",
          "name": "name",
          "type": "string"
        },
        {
          "indexed": true,
          "internalType": "uint256",
          "name": "totalCompanyValue",
          "type": "uint256"
        },
        {
          "indexed": true,
          "internalType": "uint256",
          "name": "totalShares",
          "type": "uint256"
        },
        {
          "indexed": false,
          "internalType": "uint256",
          "name": "sharePrice",
          "type": "uint256"
        },
        {
          "indexed": false,
          "internalType": "uint256",
          "name": "buyableShares",
          "type": "uint256"
        },
        {
          "indexed": false,
          "internalType": "address",
          "name": "owner",
          "type": "address"
        },
        {
          "indexed": false,
          "internalType": "uint256",
          "name": "id",
          "type": "uint256"
        }
      ],
      "name": "CompanyCreated",
      "type": "event"
    },
    {
      "anonymous": false,
      "inputs": [
        {
          "indexed": true,
          "internalType": "address",
          "name": "previousOwner",
          "type": "address"
        },
        {
          "indexed": true,
          "internalType": "address",
          "name": "newOwner",
          "type": "address"
        }
      ],
      "name": "OwnershipTransferred",
      "type": "event"
    },
    {
      "anonymous": false,
      "inputs": [
        {
          "indexed": true,
          "internalType": "uint256",
          "name": "amountPaid",
          "type": "uint256"
        },
        {
          "components": [
            {
              "internalType": "string",
              "name": "name",
              "type": "string"
            },
            {
              "internalType": "uint256",
              "name": "totalCompanyValue",
              "type": "uint256"
            },
            {
              "internalType": "uint256",
              "name": "totalShares",
              "type": "uint256"
            },
            {
              "internalType": "uint256",
              "name": "sharePrice",
              "type": "uint256"
            },
            {
              "internalType": "uint256",
              "name": "buyableShares",
              "type": "uint256"
            },
            {
              "internalType": "uint256",
              "name": "companyFunds",
              "type": "uint256"
            },
            {
              "internalType": "uint256",
              "name": "availableShares",
              "type": "uint256"
            },
            {
              "internalType": "uint256",
              "name": "numberOfInvestors",
              "type": "uint256"
            },
            {
              "internalType": "address",
              "name": "owner",
              "type": "address"
            },
            {
              "internalType": "address[]",
              "name": "investors",
              "type": "address[]"
            },
            {
              "internalType": "uint256",
              "name": "id",
              "type": "uint256"
            }
          ],
          "indexed": true,
          "internalType": "struct ServiceMarketplace.Company",
          "name": "company",
          "type": "tuple"
        }
      ],
      "name": "ServicePaymentProcessed",
      "type": "event"
    },
    {
      "anonymous": false,
      "inputs": [
        {
          "components": [
            {
              "internalType": "uint256",
              "name": "investedAmount",
              "type": "uint256"
            },
            {
              "internalType": "uint256",
              "name": "sharePercentage",
              "type": "uint256"
            },
            {
              "internalType": "address",
              "name": "investorAddress",
              "type": "address"
            }
          ],
          "indexed": true,
          "internalType": "struct ServiceMarketplace.Investor",
          "name": "investor",
          "type": "tuple"
        },
        {
          "indexed": true,
          "internalType": "uint256",
          "name": "percentage",
          "type": "uint256"
        },
        {
          "components": [
            {
              "internalType": "string",
              "name": "name",
              "type": "string"
            },
            {
              "internalType": "uint256",
              "name": "totalCompanyValue",
              "type": "uint256"
            },
            {
              "internalType": "uint256",
              "name": "totalShares",
              "type": "uint256"
            },
            {
              "internalType": "uint256",
              "name": "sharePrice",
              "type": "uint256"
            },
            {
              "internalType": "uint256",
              "name": "buyableShares",
              "type": "uint256"
            },
            {
              "internalType": "uint256",
              "name": "companyFunds",
              "type": "uint256"
            },
            {
              "internalType": "uint256",
              "name": "availableShares",
              "type": "uint256"
            },
            {
              "internalType": "uint256",
              "name": "numberOfInvestors",
              "type": "uint256"
            },
            {
              "internalType": "address",
              "name": "owner",
              "type": "address"
            },
            {
              "internalType": "address[]",
              "name": "investors",
              "type": "address[]"
            },
            {
              "internalType": "uint256",
              "name": "id",
              "type": "uint256"
            }
          ],
          "indexed": true,
          "internalType": "struct ServiceMarketplace.Company",
          "name": "company",
          "type": "tuple"
        }
      ],
      "name": "newInvestor",
      "type": "event"
    },
    {
      "anonymous": false,
      "inputs": [
        {
          "indexed": true,
          "internalType": "uint256",
          "name": "amount",
          "type": "uint256"
        },
        {
          "indexed": true,
          "internalType": "address",
          "name": "addressTo",
          "type": "address"
        },
        {
          "components": [
            {
              "internalType": "string",
              "name": "name",
              "type": "string"
            },
            {
              "internalType": "uint256",
              "name": "totalCompanyValue",
              "type": "uint256"
            },
            {
              "internalType": "uint256",
              "name": "totalShares",
              "type": "uint256"
            },
            {
              "internalType": "uint256",
              "name": "sharePrice",
              "type": "uint256"
            },
            {
              "internalType": "uint256",
              "name": "buyableShares",
              "type": "uint256"
            },
            {
              "internalType": "uint256",
              "name": "companyFunds",
              "type": "uint256"
            },
            {
              "internalType": "uint256",
              "name": "availableShares",
              "type": "uint256"
            },
            {
              "internalType": "uint256",
              "name": "numberOfInvestors",
              "type": "uint256"
            },
            {
              "internalType": "address",
              "name": "owner",
              "type": "address"
            },
            {
              "internalType": "address[]",
              "name": "investors",
              "type": "address[]"
            },
            {
              "internalType": "uint256",
              "name": "id",
              "type": "uint256"
            }
          ],
          "indexed": true,
          "internalType": "struct ServiceMarketplace.Company",
          "name": "company",
          "type": "tuple"
        }
      ],
      "name": "withdrawSuccess",
      "type": "event"
    },
    {
      "inputs": [
        {
          "internalType": "uint256",
          "name": "id",
          "type": "uint256"
        }
      ],
      "name": "checkBalanceOfCompany",
      "outputs": [
        {
          "internalType": "uint256",
          "name": "",
          "type": "uint256"
        }
      ],
      "stateMutability": "view",
      "type": "function"
    },
    {
      "inputs": [
        {
          "internalType": "uint256",
          "name": "",
          "type": "uint256"
        }
      ],
      "name": "companiesAddress",
      "outputs": [
        {
          "internalType": "address",
          "name": "",
          "type": "address"
        }
      ],
      "stateMutability": "view",
      "type": "function"
    },
    {
      "inputs": [
        {
          "internalType": "uint256",
          "name": "",
          "type": "uint256"
        },
        {
          "internalType": "address",
          "name": "",
          "type": "address"
        }
      ],
      "name": "companyIdToInvestors",
      "outputs": [
        {
          "internalType": "uint256",
          "name": "investedAmount",
          "type": "uint256"
        },
        {
          "internalType": "uint256",
          "name": "sharePercentage",
          "type": "uint256"
        },
        {
          "internalType": "address",
          "name": "investorAddress",
          "type": "address"
        }
      ],
      "stateMutability": "view",
      "type": "function"
    },
    {
      "inputs": [
        {
          "internalType": "uint256",
          "name": "",
          "type": "uint256"
        }
      ],
      "name": "companyOwners",
      "outputs": [
        {
          "internalType": "address",
          "name": "",
          "type": "address"
        }
      ],
      "stateMutability": "view",
      "type": "function"
    },
    {
      "inputs": [
        {
          "internalType": "string",
          "name": "_name",
          "type": "string"
        },
        {
          "internalType": "uint256",
          "name": "_totalCompanyValue",
          "type": "uint256"
        },
        {
          "internalType": "uint256",
          "name": "_totalShares",
          "type": "uint256"
        },
        {
          "internalType": "uint256",
          "name": "_sharePrice",
          "type": "uint256"
        },
        {
          "internalType": "uint256",
          "name": "_buyableShares",
          "type": "uint256"
        }
      ],
      "name": "createCompany",
      "outputs": [],
      "stateMutability": "nonpayable",
      "type": "function"
    },
    {
      "inputs": [
        {
          "internalType": "uint256",
          "name": "",
          "type": "uint256"
        }
      ],
      "name": "idToCompany",
      "outputs": [
        {
          "internalType": "string",
          "name": "name",
          "type": "string"
        },
        {
          "internalType": "uint256",
          "name": "totalCompanyValue",
          "type": "uint256"
        },
        {
          "internalType": "uint256",
          "name": "totalShares",
          "type": "uint256"
        },
        {
          "internalType": "uint256",
          "name": "sharePrice",
          "type": "uint256"
        },
        {
          "internalType": "uint256",
          "name": "buyableShares",
          "type": "uint256"
        },
        {
          "internalType": "uint256",
          "name": "companyFunds",
          "type": "uint256"
        },
        {
          "internalType": "uint256",
          "name": "availableShares",
          "type": "uint256"
        },
        {
          "internalType": "uint256",
          "name": "numberOfInvestors",
          "type": "uint256"
        },
        {
          "internalType": "address",
          "name": "owner",
          "type": "address"
        },
        {
          "internalType": "uint256",
          "name": "id",
          "type": "uint256"
        }
      ],
      "stateMutability": "view",
      "type": "function"
    },
    {
      "inputs": [
        {
          "internalType": "uint256",
          "name": "id",
          "type": "uint256"
        }
      ],
      "name": "invest",
      "outputs": [],
      "stateMutability": "payable",
      "type": "function"
    },
    {
      "inputs": [],
      "name": "numberOfCompanies",
      "outputs": [
        {
          "internalType": "uint256",
          "name": "",
          "type": "uint256"
        }
      ],
      "stateMutability": "view",
      "type": "function"
    },
    {
      "inputs": [],
      "name": "owner",
      "outputs": [
        {
          "internalType": "address",
          "name": "",
          "type": "address"
        }
      ],
      "stateMutability": "view",
      "type": "function"
    },
    {
      "inputs": [
        {
          "internalType": "uint256",
          "name": "id",
          "type": "uint256"
        }
      ],
      "name": "payForService",
      "outputs": [],
      "stateMutability": "payable",
      "type": "function"
    },
    {
      "inputs": [],
      "name": "renounceOwnership",
      "outputs": [],
      "stateMutability": "nonpayable",
      "type": "function"
    },
    {
      "inputs": [
        {
          "internalType": "address",
          "name": "newOwner",
          "type": "address"
        }
      ],
      "name": "transferOwnership",
      "outputs": [],
      "stateMutability": "nonpayable",
      "type": "function"
    },
    {
      "inputs": [
        {
          "internalType": "uint256",
          "name": "_amount",
          "type": "uint256"
        },
        {
          "internalType": "address",
          "name": "_address",
          "type": "address"
        },
        {
          "internalType": "uint256",
          "name": "id",
          "type": "uint256"
        }
      ],
      "name": "withdraw",
      "outputs": [],
      "stateMutability": "nonpayable",
      "type": "function"
    }
  ],
  "bytecode": "0x60806040523480156200001157600080fd5b5060405162002f2138038062002f218339818101604052810190620000379190620001f4565b80600073ffffffffffffffffffffffffffffffffffffffff168173ffffffffffffffffffffffffffffffffffffffff1603620000ad5760006040517f1e4fbdf7000000000000000000000000000000000000000000000000000000008152600401620000a4919062000237565b60405180910390fd5b620000be81620000c660201b60201c565b505062000254565b60008060009054906101000a900473ffffffffffffffffffffffffffffffffffffffff169050816000806101000a81548173ffffffffffffffffffffffffffffffffffffffff021916908373ffffffffffffffffffffffffffffffffffffffff1602179055508173ffffffffffffffffffffffffffffffffffffffff168173ffffffffffffffffffffffffffffffffffffffff167f8be0079c531659141344cd1fd0a4f28419497f9722a3daafe3b4186f6b6457e060405160405180910390a35050565b600080fd5b600073ffffffffffffffffffffffffffffffffffffffff82169050919050565b6000620001bc826200018f565b9050919050565b620001ce81620001af565b8114620001da57600080fd5b50565b600081519050620001ee81620001c3565b92915050565b6000602082840312156200020d576200020c6200018a565b5b60006200021d84828501620001dd565b91505092915050565b6200023181620001af565b82525050565b60006020820190506200024e600083018462000226565b92915050565b612cbd80620002646000396000f3fe6080604052600436106100c25760003560e01c8063a93253c11161007f578063dbec6def11610059578063dbec6def1461028c578063e63697c8146102a8578063f2fde38b146102d1578063f92fc41a146102fa576100c2565b8063a93253c1146101de578063c362174c1461021b578063d8d9f4db14610261576100c2565b80632afcf480146100c75780632e6ac8b3146100e35780634fdac684146101205780635509101d1461015f578063715018a61461019c5780638da5cb5b146101b3575b600080fd5b6100e160048036038101906100dc9190611bd9565b610323565b005b3480156100ef57600080fd5b5061010a60048036038101906101059190611bd9565b61081a565b6040516101179190611c15565b60405180910390f35b34801561012c57600080fd5b5061014760048036038101906101429190611c8e565b61092e565b60405161015693929190611cdd565b60405180910390f35b34801561016b57600080fd5b5061018660048036038101906101819190611bd9565b610985565b6040516101939190611d14565b60405180910390f35b3480156101a857600080fd5b506101b16109c4565b005b3480156101bf57600080fd5b506101c86109d8565b6040516101d59190611d14565b60405180910390f35b3480156101ea57600080fd5b5061020560048036038101906102009190611bd9565b610a01565b6040516102129190611d14565b60405180910390f35b34801561022757600080fd5b50610242600480360381019061023d9190611bd9565b610a40565b6040516102589a99989796959493929190611dbf565b60405180910390f35b34801561026d57600080fd5b50610276610b3c565b6040516102839190611c15565b60405180910390f35b6102a660048036038101906102a19190611bd9565b610b42565b005b3480156102b457600080fd5b506102cf60048036038101906102ca9190611e62565b610e1c565b005b3480156102dd57600080fd5b506102f860048036038101906102f39190611eb5565b611081565b005b34801561030657600080fd5b50610321600480360381019061031c9190612017565b611107565b005b806001805461033291906120dd565b81118061033f5750600081105b15610376576040517f564e222200000000000000000000000000000000000000000000000000000000815260040160405180910390fd5b61037e611a41565b600034116103c1576040517f08c379a00000000000000000000000000000000000000000000000000000000081526004016103b890612183565b60405180910390fd5b6000670de0b6b3a764000060646009600087815260200190815260200160002060040154600960008881526020019081526020016000206003015461040691906121a3565b346104119190612214565b61041b91906121a3565b6104259190612214565b9050600081118015610438575060648111155b610477576040517f08c379a000000000000000000000000000000000000000000000000000000000815260040161046e906122b7565b60405180910390fd5b6000606482600960008881526020019081526020016000206004015461049d91906121a3565b6104a79190612214565b90506009600086815260200190815260200160002060060154811115610502576040517f08c379a00000000000000000000000000000000000000000000000000000000081526004016104f990612323565b60405180910390fd5b8060096000878152602001908152602001600020600601600082825461052891906120dd565b92505081905550346009600087815260200190815260200160002060050160008282546105559190612343565b9250508190555060096000868152602001908152602001600020600901339080600181540180825580915050600190039060005260206000200160009091909190916101000a81548173ffffffffffffffffffffffffffffffffffffffff021916908373ffffffffffffffffffffffffffffffffffffffff160217905550348360000181815250508183602001818152505033836040019073ffffffffffffffffffffffffffffffffffffffff16908173ffffffffffffffffffffffffffffffffffffffff16815250506007839080600181540180825580915050600190039060005260206000209060030201600090919091909150600082015181600001556020820151816001015560408201518160020160006101000a81548173ffffffffffffffffffffffffffffffffffffffff021916908373ffffffffffffffffffffffffffffffffffffffff1602179055505050346008600087815260200190815260200160002060003373ffffffffffffffffffffffffffffffffffffffff1673ffffffffffffffffffffffffffffffffffffffff168152602001908152602001600020600001600082825461070b9190612343565b92505081905550816008600087815260200190815260200160002060003373ffffffffffffffffffffffffffffffffffffffff1673ffffffffffffffffffffffffffffffffffffffff16815260200190815260200160002060010160008282546107759190612343565b925050819055506009600086815260200190815260200160002060070160008154809291906107a390612377565b9190505550600960008681526020019081526020016000206040516107c8919061278c565b604051809103902082846040516107df91906127e2565b60405180910390207f9b04894b7dd2657b80568c1fe24b3f3c6d5d3f6f41d6e91010f02f3880227ad260405160405180910390a45050505050565b6000816001805461082b91906120dd565b8111806108385750600081105b1561086f576040517f564e222200000000000000000000000000000000000000000000000000000000815260040160405180910390fd5b826000600a600083815260200190815260200160002060009054906101000a900473ffffffffffffffffffffffffffffffffffffffff1690508073ffffffffffffffffffffffffffffffffffffffff163373ffffffffffffffffffffffffffffffffffffffff161461090d576040517f6fe25c5d00000000000000000000000000000000000000000000000000000000815260040160405180910390fd5b60096000868152602001908152602001600020600501549350505050919050565b6008602052816000526040600020602052806000526040600020600091509150508060000154908060010154908060020160009054906101000a900473ffffffffffffffffffffffffffffffffffffffff16905083565b6002818154811061099557600080fd5b906000526020600020016000915054906101000a900473ffffffffffffffffffffffffffffffffffffffff1681565b6109cc6117a0565b6109d66000611827565b565b60008060009054906101000a900473ffffffffffffffffffffffffffffffffffffffff16905090565b60038181548110610a1157600080fd5b906000526020600020016000915054906101000a900473ffffffffffffffffffffffffffffffffffffffff1681565b6009602052806000526040600020600091509050806000018054610a63906123ee565b80601f0160208091040260200160405190810160405280929190818152602001828054610a8f906123ee565b8015610adc5780601f10610ab157610100808354040283529160200191610adc565b820191906000526020600020905b815481529060010190602001808311610abf57829003601f168201915b5050505050908060010154908060020154908060030154908060040154908060050154908060060154908060070154908060080160009054906101000a900473ffffffffffffffffffffffffffffffffffffffff169080600a015490508a565b60015481565b8060018054610b5191906120dd565b811180610b5e5750600081105b15610b95576040517f564e222200000000000000000000000000000000000000000000000000000000815260040160405180910390fd5b600080600090505b6009600085815260200190815260200160002060070154811015610dd8576000600960008681526020019081526020016000206009018281548110610be557610be46127fd565b5b9060005260206000200160009054906101000a900473ffffffffffffffffffffffffffffffffffffffff169050600060646008600088815260200190815260200160002060008473ffffffffffffffffffffffffffffffffffffffff1673ffffffffffffffffffffffffffffffffffffffff16815260200190815260200160002060010154670de0b6b3a764000034610c7e9190612214565b610c8891906121a3565b610c929190612214565b90506000600960008881526020019081526020016000206004015482600860008a815260200190815260200160002060008673ffffffffffffffffffffffffffffffffffffffff1673ffffffffffffffffffffffffffffffffffffffff16815260200190815260200160002060000154610d0c91906121a3565b610d169190612214565b90508273ffffffffffffffffffffffffffffffffffffffff166108fc829081150290604051600060405180830381858888f19350505050158015610d5e573d6000803e3d6000fd5b508085610d6b9190612343565b945060096000888152602001908152602001600020604051610d8d919061278c565b6040518091039020347ff13bbd1f0ab36c5e686d1da7cc6812b29256c6fc1df65a97982c1d8149b72c5960405160405180910390a35050508080610dd090612377565b915050610b9d565b5060008134610de791906120dd565b905080600960008681526020019081526020016000206005016000828254610e0f9190612343565b9250508190555050505050565b8060018054610e2b91906120dd565b811180610e385750600081105b15610e6f576040517f564e222200000000000000000000000000000000000000000000000000000000815260040160405180910390fd5b816000600a600083815260200190815260200160002060009054906101000a900473ffffffffffffffffffffffffffffffffffffffff1690508073ffffffffffffffffffffffffffffffffffffffff163373ffffffffffffffffffffffffffffffffffffffff1614610f0d576040517f6fe25c5d00000000000000000000000000000000000000000000000000000000815260040160405180910390fd5b84600073ffffffffffffffffffffffffffffffffffffffff168173ffffffffffffffffffffffffffffffffffffffff1603610f74576040517f945f148600000000000000000000000000000000000000000000000000000000815260040160405180910390fd5b600060096000878152602001908152602001600020600501549050808811610fde578673ffffffffffffffffffffffffffffffffffffffff166108fc899081150290604051600060405180830381858888f19350505050158015610fdc573d6000803e3d6000fd5b505b8760096000888152602001908152602001600020600501600082825461100491906120dd565b925050819055506009600087815260200190815260200160002060405161102b919061278c565b60405180910390208773ffffffffffffffffffffffffffffffffffffffff16897f9ced45377d5a2f786af83fa4c0183ff265cf48c3a3ec93815346d52baec727e360405160405180910390a45050505050505050565b6110896117a0565b600073ffffffffffffffffffffffffffffffffffffffff168173ffffffffffffffffffffffffffffffffffffffff16036110fb5760006040517f1e4fbdf70000000000000000000000000000000000000000000000000000000081526004016110f29190611d14565b60405180910390fd5b61110481611827565b50565b60005b6003805490508110156111cd573373ffffffffffffffffffffffffffffffffffffffff1660038281548110611142576111416127fd565b5b9060005260206000200160009054906101000a900473ffffffffffffffffffffffffffffffffffffffff1673ffffffffffffffffffffffffffffffffffffffff16036111ba576040517f698160fb00000000000000000000000000000000000000000000000000000000815260040160405180910390fd5b80806111c590612377565b91505061110a565b50846000816040516020016111e2919061282c565b604051602081830303815290604052905060005b6006805490508110156112fd576112b3826006838154811061121b5761121a6127fd565b5b906000526020600020018054611230906123ee565b80601f016020809104026020016040519081016040528092919081815260200182805461125c906123ee565b80156112a95780601f1061127e576101008083540402835291602001916112a9565b820191906000526020600020905b81548152906001019060200180831161128c57829003601f168201915b50505050506118eb565b156112ea576040517f84998aac00000000000000000000000000000000000000000000000000000000815260040160405180910390fd5b80806112f590612377565b9150506111f6565b508285808210611339576040517ff7ea390700000000000000000000000000000000000000000000000000000000815260040160405180910390fd5b60008960405160200161134c919061282c565b60405160208183030381529060405290506006819080600181540180825580915050600190039060005260206000200160009091909190915090816113919190612a05565b5061139a611a78565b8a816000018190525089816020018181525050878160600181815250508881604001818152505086816080018181525050868160c00181815250503381610100019073ffffffffffffffffffffffffffffffffffffffff16908173ffffffffffffffffffffffffffffffffffffffff16815250506114166119b9565b816101400181815250506002339080600181540180825580915050600190039060005260206000200160009091909190916101000a81548173ffffffffffffffffffffffffffffffffffffffff021916908373ffffffffffffffffffffffffffffffffffffffff16021790555060048190806001815401808255809150506001900390600052602060002090600b020160009091909190915060008201518160000190816114c49190612b1d565b506020820151816001015560408201518160020155606082015181600301556080820151816004015560a0820151816005015560c0820151816006015560e082015181600701556101008201518160080160006101000a81548173ffffffffffffffffffffffffffffffffffffffff021916908373ffffffffffffffffffffffffffffffffffffffff160217905550610120820151816009019080519060200190611570929190611ae8565b5061014082015181600a015550508060096000836101400151815260200190815260200160002060008201518160000190816115ac9190612b1d565b506020820151816001015560408201518160020155606082015181600301556080820151816004015560a0820151816005015560c0820151816006015560e082015181600701556101008201518160080160006101000a81548173ffffffffffffffffffffffffffffffffffffffff021916908373ffffffffffffffffffffffffffffffffffffffff160217905550610120820151816009019080519060200190611658929190611ae8565b5061014082015181600a015590505033600a6000836101400151815260200190815260200160002060006101000a81548173ffffffffffffffffffffffffffffffffffffffff021916908373ffffffffffffffffffffffffffffffffffffffff1602179055506003339080600181540180825580915050600190039060005260206000200160009091909190916101000a81548173ffffffffffffffffffffffffffffffffffffffff021916908373ffffffffffffffffffffffffffffffffffffffff1602179055506001600081548092919061173490612377565b9190505550888a8c6040516117499190612c2b565b60405180910390207fc47450d4bc3270f7a53ff3bddf818e7143e2d86e99ff44d933c5a3dd38edde718b8b3387610140015160405161178b9493929190612c42565b60405180910390a45050505050505050505050565b6117a8611a39565b73ffffffffffffffffffffffffffffffffffffffff166117c66109d8565b73ffffffffffffffffffffffffffffffffffffffff1614611825576117e9611a39565b6040517f118cdaa700000000000000000000000000000000000000000000000000000000815260040161181c9190611d14565b60405180910390fd5b565b60008060009054906101000a900473ffffffffffffffffffffffffffffffffffffffff169050816000806101000a81548173ffffffffffffffffffffffffffffffffffffffff021916908373ffffffffffffffffffffffffffffffffffffffff1602179055508173ffffffffffffffffffffffffffffffffffffffff168173ffffffffffffffffffffffffffffffffffffffff167f8be0079c531659141344cd1fd0a4f28419497f9722a3daafe3b4186f6b6457e060405160405180910390a35050565b600081518351146118ff57600090506119b3565b60005b83518110156119ad5782818151811061191e5761191d6127fd565b5b602001015160f81c60f81b7effffffffffffffffffffffffffffffffffffffffffffffffffffffffffffff191684828151811061195e5761195d6127fd565b5b602001015160f81c60f81b7effffffffffffffffffffffffffffffffffffffffffffffffffffffffffffff19161461199a5760009150506119b3565b80806119a590612377565b915050611902565b50600190505b92915050565b600080600154116119cb576000611a0b565b60016004600180546119dd91906120dd565b815481106119ee576119ed6127fd565b5b90600052602060002090600b0201600a0154611a0a9190612343565b5b9050600581908060018154018082558091505060019003906000526020600020016000909190919091505590565b600033905090565b60405180606001604052806000815260200160008152602001600073ffffffffffffffffffffffffffffffffffffffff1681525090565b6040518061016001604052806060815260200160008152602001600081526020016000815260200160008152602001600081526020016000815260200160008152602001600073ffffffffffffffffffffffffffffffffffffffff16815260200160608152602001600081525090565b828054828255906000526020600020908101928215611b61579160200282015b82811115611b605782518260006101000a81548173ffffffffffffffffffffffffffffffffffffffff021916908373ffffffffffffffffffffffffffffffffffffffff16021790555091602001919060010190611b08565b5b509050611b6e9190611b72565b5090565b5b80821115611b8b576000816000905550600101611b73565b5090565b6000604051905090565b600080fd5b600080fd5b6000819050919050565b611bb681611ba3565b8114611bc157600080fd5b50565b600081359050611bd381611bad565b92915050565b600060208284031215611bef57611bee611b99565b5b6000611bfd84828501611bc4565b91505092915050565b611c0f81611ba3565b82525050565b6000602082019050611c2a6000830184611c06565b92915050565b600073ffffffffffffffffffffffffffffffffffffffff82169050919050565b6000611c5b82611c30565b9050919050565b611c6b81611c50565b8114611c7657600080fd5b50565b600081359050611c8881611c62565b92915050565b60008060408385031215611ca557611ca4611b99565b5b6000611cb385828601611bc4565b9250506020611cc485828601611c79565b9150509250929050565b611cd781611c50565b82525050565b6000606082019050611cf26000830186611c06565b611cff6020830185611c06565b611d0c6040830184611cce565b949350505050565b6000602082019050611d296000830184611cce565b92915050565b600081519050919050565b600082825260208201905092915050565b60005b83811015611d69578082015181840152602081019050611d4e565b60008484015250505050565b6000601f19601f8301169050919050565b6000611d9182611d2f565b611d9b8185611d3a565b9350611dab818560208601611d4b565b611db481611d75565b840191505092915050565b6000610140820190508181036000830152611dda818d611d86565b9050611de9602083018c611c06565b611df6604083018b611c06565b611e03606083018a611c06565b611e106080830189611c06565b611e1d60a0830188611c06565b611e2a60c0830187611c06565b611e3760e0830186611c06565b611e45610100830185611cce565b611e53610120830184611c06565b9b9a5050505050505050505050565b600080600060608486031215611e7b57611e7a611b99565b5b6000611e8986828701611bc4565b9350506020611e9a86828701611c79565b9250506040611eab86828701611bc4565b9150509250925092565b600060208284031215611ecb57611eca611b99565b5b6000611ed984828501611c79565b91505092915050565b600080fd5b600080fd5b7f4e487b7100000000000000000000000000000000000000000000000000000000600052604160045260246000fd5b611f2482611d75565b810181811067ffffffffffffffff82111715611f4357611f42611eec565b5b80604052505050565b6000611f56611b8f565b9050611f628282611f1b565b919050565b600067ffffffffffffffff821115611f8257611f81611eec565b5b611f8b82611d75565b9050602081019050919050565b82818337600083830152505050565b6000611fba611fb584611f67565b611f4c565b905082815260208101848484011115611fd657611fd5611ee7565b5b611fe1848285611f98565b509392505050565b600082601f830112611ffe57611ffd611ee2565b5b813561200e848260208601611fa7565b91505092915050565b600080600080600060a0868803121561203357612032611b99565b5b600086013567ffffffffffffffff81111561205157612050611b9e565b5b61205d88828901611fe9565b955050602061206e88828901611bc4565b945050604061207f88828901611bc4565b935050606061209088828901611bc4565b92505060806120a188828901611bc4565b9150509295509295909350565b7f4e487b7100000000000000000000000000000000000000000000000000000000600052601160045260246000fd5b60006120e882611ba3565b91506120f383611ba3565b925082820390508181111561210b5761210a6120ae565b5b92915050565b7f496e766573746d656e7420616d6f756e74206d7573742062652067726561746560008201527f72207468616e2030000000000000000000000000000000000000000000000000602082015250565b600061216d602883611d3a565b915061217882612111565b604082019050919050565b6000602082019050818103600083015261219c81612160565b9050919050565b60006121ae82611ba3565b91506121b983611ba3565b92508282026121c781611ba3565b915082820484148315176121de576121dd6120ae565b5b5092915050565b7f4e487b7100000000000000000000000000000000000000000000000000000000600052601260045260246000fd5b600061221f82611ba3565b915061222a83611ba3565b92508261223a576122396121e5565b5b828204905092915050565b7f50657263656e74616765206d757374206265206265747765656e203120616e6460008201527f2031303000000000000000000000000000000000000000000000000000000000602082015250565b60006122a1602483611d3a565b91506122ac82612245565b604082019050919050565b600060208201905081810360008301526122d081612294565b9050919050565b7f4e6f7420656e6f7567682073686172657320617661696c61626c650000000000600082015250565b600061230d601b83611d3a565b9150612318826122d7565b602082019050919050565b6000602082019050818103600083015261233c81612300565b9050919050565b600061234e82611ba3565b915061235983611ba3565b9250828201905080821115612371576123706120ae565b5b92915050565b600061238282611ba3565b91507fffffffffffffffffffffffffffffffffffffffffffffffffffffffffffffffff82036123b4576123b36120ae565b5b600182019050919050565b7f4e487b7100000000000000000000000000000000000000000000000000000000600052602260045260246000fd5b6000600282049050600182168061240657607f821691505b602082108103612419576124186123bf565b5b50919050565b600081905092915050565b60008190508160005260206000209050919050565b6000815461244c816123ee565b612456818661241f565b945060018216600081146124715760018114612487576124ba565b60ff1983168652811515602002860193506124ba565b6124908561242a565b60005b838110156124b257815481890152600182019150602081019050612493565b808801955050505b50505092915050565b60006124cf838361243f565b905092915050565b60008160001c9050919050565b6000819050919050565b60006125016124fc836124d7565b6124e4565b9050919050565b61251181611ba3565b82525050565b60006125238383612508565b60208301905092915050565b600073ffffffffffffffffffffffffffffffffffffffff82169050919050565b600061256261255d836124d7565b61252f565b9050919050565b61257281611c50565b82525050565b60006125848383612569565b60208301905092915050565b600081549050919050565b600081905092915050565b60008190508160005260206000209050919050565b60006125c7825461254f565b9050919050565b6000600182019050919050565b60006125e682612590565b6125f0818561259b565b93506125fb836125a6565b8060005b8381101561263357612610826125bb565b61261a8882612578565b9750612625836125ce565b9250506001810190506125ff565b5085935050505092915050565b600061264c83836125db565b905092915050565b6000808301600080840161266886826124c3565b9550506001840154905061267b816124ee565b6126858682612517565b95505060028401549050612698816124ee565b6126a28682612517565b955050600384015490506126b5816124ee565b6126bf8682612517565b955050600484015490506126d2816124ee565b6126dc8682612517565b955050600584015490506126ef816124ee565b6126f98682612517565b9550506006840154905061270c816124ee565b6127168682612517565b95505060078401549050612729816124ee565b6127338682612517565b955050600884015490506127468161254f565b6127508682612578565b955050600984016127618682612640565b955050600a8401549050612774816124ee565b61277e8682612517565b955050849250505092915050565b60006127988284612654565b915081905092915050565b6000820160008201516127b68482612517565b93505060208201516127c88482612517565b93505060408201516127da8482612578565b935050505050565b60006127ee82846127a3565b60608201915081905092915050565b7f4e487b7100000000000000000000000000000000000000000000000000000000600052603260045260246000fd5b600060208201905081810360008301526128468184611d86565b905092915050565b600081519050919050565b60008190508160005260206000209050919050565b60006020601f8301049050919050565b600082821b905092915050565b6000600883026128bb7fffffffffffffffffffffffffffffffffffffffffffffffffffffffffffffffff8261287e565b6128c5868361287e565b95508019841693508086168417925050509392505050565b6000819050919050565b60006129026128fd6128f884611ba3565b6128dd565b611ba3565b9050919050565b6000819050919050565b61291c836128e7565b61293061292882612909565b84845461288b565b825550505050565b600090565b612945612938565b612950818484612913565b505050565b5b818110156129745761296960008261293d565b600181019050612956565b5050565b601f8211156129b95761298a81612859565b6129938461286e565b810160208510156129a2578190505b6129b66129ae8561286e565b830182612955565b50505b505050565b600082821c905092915050565b60006129dc600019846008026129be565b1980831691505092915050565b60006129f583836129cb565b9150826002028217905092915050565b612a0e8261284e565b67ffffffffffffffff811115612a2757612a26611eec565b5b612a3182546123ee565b612a3c828285612978565b600060209050601f831160018114612a6f5760008415612a5d578287015190505b612a6785826129e9565b865550612acf565b601f198416612a7d86612859565b60005b82811015612aa557848901518255600182019150602085019450602081019050612a80565b86831015612ac25784890151612abe601f8916826129cb565b8355505b6001600288020188555050505b505050505050565b601f821115612b1857612ae98161242a565b612af28461286e565b81016020851015612b01578190505b612b15612b0d8561286e565b830182612955565b50505b505050565b612b2682611d2f565b67ffffffffffffffff811115612b3f57612b3e611eec565b5b612b4982546123ee565b612b54828285612ad7565b600060209050601f831160018114612b875760008415612b75578287015190505b612b7f85826129e9565b865550612be7565b601f198416612b958661242a565b60005b82811015612bbd57848901518255600182019150602085019450602081019050612b98565b86831015612bda5784890151612bd6601f8916826129cb565b8355505b6001600288020188555050505b505050505050565b600081905092915050565b6000612c0582611d2f565b612c0f8185612bef565b9350612c1f818560208601611d4b565b80840191505092915050565b6000612c378284612bfa565b915081905092915050565b6000608082019050612c576000830187611c06565b612c646020830186611c06565b612c716040830185611cce565b612c7e6060830184611c06565b9594505050505056fea26469706673582212203d9da44555e784394f99374203117538d01a267cc51a2aefa086049779aa308b64736f6c63430008140033",
  "linkReferences": {},
  "deployedLinkReferences": {}
}